:10000300759850D2AFD2ACE4F587758920758BFD16
:06001300758DFDD28E2266
:080019008F993099FDC2992274
:0C03D700AD07AC06120019AF04020019BB
:08039D008B208A2189228D23A7
:1003A5007FFF120019E4F524E524C39523501EAB05
:1003B50020AA21A92275F002E524A4F58285F083FF
:1003C500120026FFAEF01203D7052480DB7FFE0264
:0203D50000190D
:060312008B208A218922E4
:10031800E51D60FCE4F51DF523E52325E0241AF826
:10032800E6FEE52325E02419F8E67C002400FFEC2E
:100338003EFEAB20AA21A92275F002E523A4F5828E
:1003480085F083EE8FF012005E0523E523B402C921
:010358002282
:030023000202BF17
:0B02BF00C0E0C0D075D000C000C00738
:1002CA0030983CC298AF99E51E7009EFF47030750A
:1002DA001E01802BE51EB401187419251FF8A60704
:1002EA00051FE51FD394034016751F00751E028073
:0F02FA000EE51EB40209BFFE06751E00751D013C
:09030900D007D000D0D0D0E032C2
:10019A001200037B007A00790D120312E50FC413D3
:1001AA00135403F50C530F3F7021E510450F7005EA
:1001BA007518018073AE0FAF10AB07AA06E4F9F801
:1001CA00AE0DAF0EFCFD1200C78010E50CB4011590
:1001DA00AE0FAF10AC0DAD0E12016D8F0B8E0A8DE6
:1001EA00098C088043E50CB4021FAE0FAF10AB07B1
:1001FA00AA06C3E50E9BF50BE50D9AF50AE49400F1
:10020A00F509E49400F508801FE50CB4031AAE0F53
:10021A00AF10AB07AA06E50E2BF50BE50D3AF50A6A
:10022A00E433F509E433F508850A11850B12AF0B9F
:10023A00AE0AAD09AC0878101201598E138F14ACAE
:10024A0008EC335027E50B24FFFFE50A34FFFEE5EF
:10025A000934FFFDE50834FFFCEFF4FFEEF4FEED90
:10026A00F4FDECF48F0B8E0A8D09F508E4F517AF4F
:10027A000BAE0AAD09AC08EC4D4E4F6015E47B0A93
:10028A00FAF9F81203598F0B8E0A8D098C08051793
:10029A0080DDE518B4010AE4F518F5157516FF8036
:1002AA00067515008517167B007A0079117D0312F1
:0502BA00039D02019DFF
:030000000203E315
:0C03E300787FE4F6D8FD75812402019AB1
:10002600BB0110E58229F582E5833AF583E0F5F018
:10003600A3E0225009E92582F886F008E622BBFEF5
:100046000AE92582F8E2F5F008E222E5832AF5833B
:08005600E993F5F0A3E9932200
:10005E00F8BB0111E58229F582E5833AF583E8F0D4
:10006E00E5F0A3F0225009E92582C8F608A6F02291
:0D007E00BBFE09E92582C8F2E5F008F22278
:10008B0075F008758200EF2FFFEE33FECD33CDCC2C
:10009B0033CCC58233C5829BED9AEC99E5829840AF
:1000AB000CF582EE9BFEED9AFDEC99FC0FD5F0D68C
:1000BB00E4CEFBE4CDFAE4CCF9A88222B800C1B9B6
:1000CB000059BA002DEC8BF084CFCECDFCE5F0CBF4
:1000DB00F97818EF2FFFEE33FEED33FDEC33FCEB2D
:1000EB0033FB10D703994004EB99FB0FD8E5E4F9E8
:1000FB00FA227818EF2FFFEE33FEED33FDEC33FCD5
:10010B00C933C910D7059BE99A4007EC9BFCE99AC8
:10011B00F90FD8E0E4C9FAE4CCFB2275F010EF2F0D
:10012B00FFEE33FEED33FDCC33CCC833C810D7070D
:10013B009BEC9AE899400AED9BFDEC9AFCE899F848
:0E014B000FD5F0DAE4CDFBE4CCFAE4C8F922DB
:10035900C2D5E830E70FB2D5E4C39BFBE49AFAE4CF
:1003690099F9E498F8EC30E717B2D512038F120027
:10037900C7E4C39BFBE49AFAE499F9E498F880038B
:100389001200C730D50DE4C39FFFE49EFEE49DFD36
:04039900E49CFC22C2
:10015900E86010ECA2E713FCED13FDEE13FEEF13BC
:04016900FFD8F022A9
:10016D00EC8EF0A4CCC5F0CCCDF8EFA4CEC5F02D1F
:10017D00FDE43CFCE8A42EC8C5F03DFDE43CFCEFDD
:0D018D00A4FFE5F028FEE43DFDE43CFC226B
:00000001FF
