:1008B8007D027CEFEF1FAA0670011E4A6006DCFE6F
:0408C800DDFC80F0E3
:0108CC002209
:1008A200759850D2AFD2ACE4F587758920758BFD6F
:0608B200758DFDD28E22BF
:08001B008F993099FDC2992272
:0C08E100AD07AC0612001BAF0402001BA8
:080822008B1C8A1D891E8D1F2D
:10082A007FFF12001BE4F520E520C3951F501EAB85
:10083A001CAA1DA91E75F002E520A4F58285F08385
:10084A0012037AFFAEF01208E1052080DB7FFE0278
:02085A00001B81
:0607DB008B1C8A1D891E23
:1007E100E53160FCE4F531F51FE51F25E0242CF827
:1007F100E6FEE51F25E0242BF8E67C002400FFEC53
:100801003EFEAB1CAA1DA91E75F002E51FA4F582D0
:1008110085F083EE8FF01203B2051FE51FB403C903
:0108210022B4
:04091900E4F53122AE
:030023000206983A
:0B069800C0E0C0D075D000C000C0075B
:1006A30030983CC298AF99E5327009EFF470307519
:1006B3003201802BE532B40118742B2533F8A607D9
:1006C3000533E533D3940540167533007532028044
:0F06D3000EE532B40209BFFE0675320075310123
:0906E200D007D000D0D0D0E032E6
:02085C00AD07E6
:10085E00E4FBC28574807E00A803088006CEA2E762
:10086E0013CE13D8F8FFEDF582EF558224FF928454
:0C087E00D283C2830BBB08DCD285C2858C
:01088A00224B
:0708ED00C28112085CD282F7
:0408F4007F78DFFE2C
:0108F80022DD
:0A090500C2801208EDC2820208F45D
:0A090F00D2801208EDC2820208F443
:1008CD007F381209057F0C1209057F061209057F75
:0408DD000102090506
:10088B00AC03EDBF010514448080031444C0FF1278
:07089B000905AF0402090F7B
:0A073D008F1C8D1D8B1E8A1F892062
:10074700E4F521F522F521AB1EAA1FA920852182F8
:100757007583001202E660060522052180E9E4F5AB
:1007670021E521C39522501EE51D2521FDAB1EAABB
:100777001FA9208521827583001202E6FBAF1C1298
:06078700088B052180DB58
:01078D002249
:08078E008E248F258D828C83DF
:10079600E4752A01F529F528F527F526C3E52695FA
:1007A60082E5836480F87480985021AB2AAA29A92F
:1007B60028A827AE24AF25EE3395E0FDFC1203DF13
:1007C6008F2A8E298D288C27052680D0AF2AAE2920
:0407D600AD28AC2777
:0107DA0022FC
:1006EB00EDBF010514448080031444C0FF120905BB
:1006FB00852223E523D394004037E52324FFFDE433
:10070B0034FFFC7F0A7E0012078EA804A905AA06F7
:10071B00AB07AF21AE20AD1FAC1E12046AE47B0AFF
:10072B00FAF9F812046AEB2430FF12090F15238033
:01073B00C2FB
:01073C00229A
:10050F00E4F51C7590FFC2932097137F01FE12082C
:10051F00B83097FD7F017E001208B8751C10209629
:10052F00147F017E001208B83096FD7F017E001205
:10053F0008B8751C0C2095147F017E001208B83086
:10054F0095FD7F017E001208B8751C0B2094147F57
:10055F00017E001208B83094FD7F017E001208B8AA
:10056F00751C017590FFC2922097147F017E0012B7
:10057F0008B83097FD7F017E001208B8751C0F2058
:10058F0096147F017E001208B83096FD7F017E0021
:10059F001208B8751C042095147F017E001208B84C
:1005AF003095FD7F017E001208B8751C032094144E
:1005BF007F017E001208B83094FD7F017E00120883
:1005CF00B8751C027590FFC2912097147F017E00B1
:1005DF001208B83097FD7F017E001208B8751C0E07
:1005EF002096147F017E001208B83096FD7F017EA1
:1005FF00001208B8751C072095147F017E001208A1
:10060F00B83095FD7F017E001208B8751C06209446
:10061F00147F017E001208B83094FD7F017E001216
:10062F0008B8751C057590FFC2902097147F017E46
:10063F00001208B83097FD7F017E001208B8751CB4
:10064F000D2096147F017E001208B83096FD7F01B1
:10065F007E001208B8751C0A2095147F017E0012C7
:10066F0008B83095FD7F017E001208B8751C09206F
:10067F0094147F017E001208B83094FD7F017E0034
:08068F001208B8751C08AF1C2D
:010697002240
:1000030020202020202020202020202020202020ED
:08001300004572726F722100BA
:100026001208CD1208A212050F8F10EF60F8E50D29
:100036007046E510C3940140EDE510D3940A50E6EE
:100046007BFF7A0079037D017F0112073D7BFF7AF2
:100056000079037D017F0212073D750D01751701B9
:10006600750801E51024FFFFE434FFFEF5188F192B
:10007600E4F51AF51B0201A3E50D64016003020114
:100086004EE510C394014045E510D3940A503EE571
:100096001794035038E51945187006E51764016092
:1000A6008505170508AE18AF197C007D0A120313E3
:1000B600AD10EF2DFFEC3ECF24FFF519EF34FFF521
:1000C60018ED24FFFFEC34FFFEE40201A3E510B4B3
:1000D6000B1F15177B20AD087F0112088B1508AE84
:1000E60018AF197C007D0A1203258E188F1902009D
:1000F6002CE510C3940D500302002CE510D3941088
:10010600400302002CE517700302002C750D02E473
:10011600F5170508E51024F2600F1460111460133A
:1001260024037012750F2F800D750F2A8008750F26
:100136002D8003750F2BAB0FAD087F0112088BE5E1
:100146001024F3F50F02002CE50D64026003020093
:100156002CE510C394014057E510D3940A5050E59E
:10016600179403504AE51B451A7009E51764017098
:100176000302002C05170508AE1AAF1B7C007D0A8A
:10018600120313AD10EF2DFFEC3ECF24FFF51BEF4E
:1001960034FFF51AED24FFFFEC34FFFEE48F218EC9
:1001A60020F51FF51E752201AD087F010202ADE59F
:1001B60010640B702BE5177008750D017517048018
:1001C600111517AE1AAF1B7C007D0A1203258E1A75
:1001D6008F1B7B20AD087F0112088B150802002CAF
:1001E600E510640C600302002CE517700302002C76
:1001F600120919E4F50D05087B3DAD087F011208CB
:100206008BE50FC4333354C0FEEE421A7B007A00EE
:1002160079187D021208227B007A0079111207DB19
:10022600AE13AF14E4FCFD78101204FCAB07AA066B
:10023600A905A804E4FCFDEB2512F50CEA3511F539
:100246000BED39F50AEC38F509851617E517B4FFF5
:100256000F7BFF7A0079140D7F0212073D02002CF6
:10026600AE0BAC09EC3350457B2D7D017F021208A5
:100276008BE50C24FFFFE50B34FFFEE50A34FFFD9A
:10028600E50934FFFCEFF4FFEEF4FEEDF4FDECF4CB
:100296008F0C8E0B8D0AF5098F218E208D1FF51E72
:1002A6008517227D027F021206EB02002CAF0CAEF0
:1002B6000BAD0AAC09EC4D4E4F700C7B307D017FC7
:1002C6000212088B02002C850C21850B20850A1F43
:1002D60085091E8517227D017F021206EB02002C7E
:030000000208F9FA
:0C08F900787FE4F6D8FD758133020026FC
:1002E600BB010CE58229F582E5833AF583E02250CD
:1002F60006E92582F8E622BBFE06E92582F8E22217
:0D030600E58229F582E5833AF583E4932230
:10031300EF8DF0A4A8F0CF8CF0A428CE8DF0A42EFE
:02032300FE22B8
:10032500BC000BBE0029EF8DF084FFADF022E4CCBC
:10033500F875F008EF2FFFEE33FEEC33FCEE9DEC85
:10034500984005FCEE9DFE0FD5F0E9E4CEFD22EDCB
:10035500F8F5F0EE8420D21CFEADF075F008EF2F15
:10036500FFED33FD4007985006D5F0F222C398FD06
:050375000FD5F0EA22A3
:10037A00BB0110E58229F582E5833AF583E0F5F0C1
:10038A00A3E0225009E92582F886F008E622BBFE9E
:10039A000AE92582F8E2F5F008E222E5832AF583E4
:0803AA00E993F5F0A3E99322A9
:1003B200F8BB0111E58229F582E5833AF583E8F07D
:1003C200E5F0A3F0225009E92582C8F608A6F0223A
:0D03D200BBFE09E92582C8F2E5F008F22221
:1003DF00E88FF0A4CC8BF0A42CFCE98EF0A42CFCBD
:1003EF008AF0EDA42CFCEA8EF0A4CDA8F08BF0A43B
:1003FF002DCC3825F0FDE98FF0A42CCD35F0FCEB9A
:10040F008EF0A4FEA9F0EB8FF0A4CFC5F02ECD395E
:0F041F00FEE43CFCEAA42DCE35F0FDE43CFC22CB
:10042E0075F008758200EF2FFFEE33FECD33CDCC85
:10043E0033CCC58233C5829BED9AEC99E582984008
:10044E000CF582EE9BFEED9AFDEC99FC0FD5F0D6E5
:10045E00E4CEFBE4CDFAE4CCF9A88222B800C1B90F
:10046E000059BA002DEC8BF084CFCECDFCE5F0CB4D
:10047E00F97818EF2FFFEE33FEED33FDEC33FCEB86
:10048E0033FB10D703994004EB99FB0FD8E5E4F941
:10049E00FA227818EF2FFFEE33FEED33FDEC33FC2E
:1004AE00C933C910D7059BE99A4007EC9BFCE99A22
:1004BE00F90FD8E0E4C9FAE4CCFB2275F010EF2F67
:1004CE00FFEE33FEED33FDCC33CCC833C810D70767
:1004DE009BEC9AE899400AED9BFDEC9AFCE899F8A2
:0E04EE000FD5F0DAE4CDFBE4CCFAE4C8F92235
:1004FC00E8600FEFC333FFEE33FEED33FDEC33FC5E
:03050C00D8F12201
:00000001FF
