:1008B5007D027CEFEF1FAA0670011E4A6006DCFE72
:0408C500DDFC80F0E6
:0108C900220C
:10089F00759850D2AFD2ACE4F587758920758BFD72
:0608AF00758DFDD28E22C2
:08001B008F993099FDC2992272
:0C08DE00AD07AC0612001BAF0402001BAB
:08081F008B1C8A1D891E8D1F30
:100827007FFF12001BE4F520E520C3951F501EAB88
:100837001CAA1DA91E75F002E520A4F58285F08388
:10084700120377FFAEF01208DE052080DB7FFE0281
:02085700001B84
:0607D8008B1C8A1D891E26
:1007DE00E53160FCE4F531F51FE51F25E0242CF82A
:1007EE00E6FEE51F25E0242BF8E67C002400FFEC56
:1007FE003EFEAB1CAA1DA91E75F002E51FA4F582D4
:10080E0085F083EE8FF01203AF051FE51FB403C909
:01081E0022B7
:030023000206953D
:0B069500C0E0C0D075D000C000C0075E
:1006A00030983CC298AF99E5327009EFF47030751C
:1006B0003201802BE532B40118742B2533F8A607DC
:1006C0000533E533D3940540167533007532028047
:0F06D0000EE532B40209BFFE0675320075310126
:0906DF00D007D000D0D0D0E032E9
:02085900AD07E9
:10085B00E4FBC28574807E00A803088006CEA2E765
:10086B0013CE13D8F8FFEDF582EF558224FF928457
:0C087B00D283C2830BBB08DCD285C2858F
:01088700224E
:0708EA00C281120859D282FD
:0408F1007F78DFFE2F
:0108F50022E0
:0A090200C2801208EAC2820208F166
:0A090C00D2801208EAC2820208F14C
:1008CA007F381209027F0C1209027F061209027F81
:0408DA00010209020C
:10088800AC03EDBF010514448080031444C0FF127B
:070898000902AF0402090C84
:0A073A008F1C8D1D8B1E8A1F892065
:10074400E4F521F522F521AB1EAA1FA920852182FB
:100754007583001202E360060522052180E9E4F5B1
:1007640021E521C39522501EE51D2521FDAB1EAABE
:100774001FA9208521827583001202E3FBAF1C129E
:060784000888052180DB5E
:01078A00224C
:08078B008E248F258D828C83E2
:10079300E4752A01F529F528F527F526C3E52695FD
:1007A30082E5836480F87480985021AB2AAA29A932
:1007B30028A827AE24AF25EE3395E0FDFC1203DC19
:1007C3008F2A8E298D288C27052680D0AF2AAE2923
:0407D300AD28AC277A
:0107D70022FF
:1006E800EDBF010514448080031444C0FF120902C1
:1006F800852223E523D394004037E52324FFFDE436
:1007080034FFFC7F0A7E0012078BA804A905AA06FD
:10071800AB07AF21AE20AD1FAC1E120467E47B0A05
:10072800FAF9F8120467EB2430FF12090C1523803C
:01073800C2FE
:01073900229D
:10050C00E4F51C7590FFC2932097137F01FE12082F
:10051C00B53097FD7F017E001208B5751C10209632
:10052C00147F017E001208B53096FD7F017E00120B
:10053C0008B5751C0C2095147F017E001208B5308F
:10054C0095FD7F017E001208B5751C0B2094147F5D
:10055C00017E001208B53094FD7F017E001208B5B3
:10056C00751C017590FFC2922097147F017E0012BA
:10057C0008B53097FD7F017E001208B5751C0F2061
:10058C0096147F017E001208B53096FD7F017E0027
:10059C001208B5751C042095147F017E001208B555
:1005AC003095FD7F017E001208B5751C0320941454
:1005BC007F017E001208B53094FD7F017E00120889
:1005CC00B5751C027590FFC2912097147F017E00B7
:1005DC001208B53097FD7F017E001208B5751C0E10
:1005EC002096147F017E001208B53096FD7F017EA7
:1005FC00001208B5751C072095147F017E001208A7
:10060C00B53095FD7F017E001208B5751C0620944F
:10061C00147F017E001208B53094FD7F017E00121C
:10062C0008B5751C057590FFC2902097147F017E4C
:10063C00001208B53097FD7F017E001208B5751CBD
:10064C000D2096147F017E001208B53096FD7F01B7
:10065C007E001208B5751C0A2095147F017E0012CD
:10066C0008B53095FD7F017E001208B5751C092078
:10067C0094147F017E001208B53094FD7F017E003A
:08068C001208B5751C08AF1C33
:010694002243
:1000030020202020202020202020202020202020ED
:08001300004572726F722100BA
:100026001208CA12089F12050C8F10EF60F8E50D32
:100036007046E510C3940140EDE510D3940A50E6EE
:100046007BFF7A0079037D017F0112073A7BFF7AF5
:100056000079037D017F0212073A750D01751701BC
:10006600750801E51024FFFFE434FFFEF5188F192B
:10007600E4F51AF51B0201A3E50D64016003020114
:100086004EE510C394014045E510D3940A503EE571
:100096001794035038E51945187006E51764016092
:1000A6008505170508AE18AF197C007D0A120310E6
:1000B600AD10EF2DFFEC3ECF24FFF519EF34FFF521
:1000C60018ED24FFFFEC34FFFEE40201A3E510B4B3
:1000D6000B1F15177B20AD087F011208881508AE87
:1000E60018AF197C007D0A1203228E188F190200A0
:1000F6002CE510C3940D500302002CE510D3941088
:10010600400302002CE517700302002C750D02E473
:10011600F5170508E51024F2600F1460111460133A
:1001260024037012750F2F800D750F2A8008750F26
:100136002D8003750F2BAB0FAD087F01120888E5E4
:100146001024F3F50F02002CE50D64026003020093
:100156002CE510C394014057E510D3940A5050E59E
:10016600179403504AE51B451A7009E51764017098
:100176000302002C05170508AE1AAF1B7C007D0A8A
:10018600120310AD10EF2DFFEC3ECF24FFF51BEF51
:1001960034FFF51AED24FFFFEC34FFFEE48F218EC9
:1001A60020F51FF51E752201AD087F010202AAE5A2
:1001B60010640B702BE5177008750D017517048018
:1001C600111517AE1AAF1B7C007D0A1203228E1A78
:1001D6008F1B7B20AD087F01120888150802002CB2
:1001E600E510640C600302002CE517700302002C76
:1001F600E4F50D05087B3DAD087F01120888E50F83
:10020600C4333354C0FEEE421A7B007A0079187D5F
:100216000212081F7B007A0079111207D8AE13AFBD
:1002260014E4FCFD78101204F9AB07AA06A905A888
:1002360004E4FCFDEB2512F50CEA3511F50BED395E
:10024600F50AEC38F509851617E517B4FF0F7BFF9D
:100256007A0079140D7F0212073A02002CAE0BAC1D
:1002660009EC3350457B2D7D017F02120888E50C91
:1002760024FFFFE50B34FFFEE50A34FFFDE50934F4
:10028600FFFCEFF4FFEEF4FEEDF4FDECF48F0C8EC4
:100296000B8D0AF5098F218E208D1FF51E851722DD
:1002A6007D027F021206E802002CAF0CAE0BAD0AEF
:1002B600AC09EC4D4E4F700C7B307D017F0212086D
:1002C6008802002C850C21850B20850A1F85091EB6
:0D02D6008517227D017F021206E802002C30
:030000000208F6FD
:0C08F600787FE4F6D8FD758133020026FF
:1002E300BB010CE58229F582E5833AF583E02250D0
:1002F30006E92582F8E622BBFE06E92582F8E2221A
:0D030300E58229F582E5833AF583E4932233
:10031000EF8DF0A4A8F0CF8CF0A428CE8DF0A42E01
:02032000FE22BB
:10032200BC000BBE0029EF8DF084FFADF022E4CCBF
:10033200F875F008EF2FFFEE33FEEC33FCEE9DEC88
:10034200984005FCEE9DFE0FD5F0E9E4CEFD22EDCE
:10035200F8F5F0EE8420D21CFEADF075F008EF2F18
:10036200FFED33FD4007985006D5F0F222C398FD09
:050372000FD5F0EA22A6
:10037700BB0110E58229F582E5833AF583E0F5F0C4
:10038700A3E0225009E92582F886F008E622BBFEA1
:100397000AE92582F8E2F5F008E222E5832AF583E7
:0803A700E993F5F0A3E99322AC
:1003AF00F8BB0111E58229F582E5833AF583E8F080
:1003BF00E5F0A3F0225009E92582C8F608A6F0223D
:0D03CF00BBFE09E92582C8F2E5F008F22224
:1003DC00E88FF0A4CC8BF0A42CFCE98EF0A42CFCC0
:1003EC008AF0EDA42CFCEA8EF0A4CDA8F08BF0A43E
:1003FC002DCC3825F0FDE98FF0A42CCD35F0FCEB9D
:10040C008EF0A4FEA9F0EB8FF0A4CFC5F02ECD3961
:0F041C00FEE43CFCEAA42DCE35F0FDE43CFC22CE
:10042B0075F008758200EF2FFFEE33FECD33CDCC88
:10043B0033CCC58233C5829BED9AEC99E58298400B
:10044B000CF582EE9BFEED9AFDEC99FC0FD5F0D6E8
:10045B00E4CEFBE4CDFAE4CCF9A88222B800C1B912
:10046B000059BA002DEC8BF084CFCECDFCE5F0CB50
:10047B00F97818EF2FFFEE33FEED33FDEC33FCEB89
:10048B0033FB10D703994004EB99FB0FD8E5E4F944
:10049B00FA227818EF2FFFEE33FEED33FDEC33FC31
:1004AB00C933C910D7059BE99A4007EC9BFCE99A25
:1004BB00F90FD8E0E4C9FAE4CCFB2275F010EF2F6A
:1004CB00FFEE33FEED33FDCC33CCC833C810D7076A
:1004DB009BEC9AE899400AED9BFDEC9AFCE899F8A5
:0E04EB000FD5F0DAE4CDFBE4CCFAE4C8F92238
:1004F900E8600FEFC333FFEE33FEED33FDEC33FC61
:03050900D8F12204
:00000001FF
